:020000040800F2
:10000000C0050020010100087D090008AB070008B9
:10001000D3070008890600088518000800000000C2
:100020000000000000000000000000004D14000867
:100030008B0600080000000017010008F9140008F2
:100040001B0100081B0100081B010008C113000868
:100050001B0100081B0100081B0100081B01000810
:100060001B0100081B0100081B0100081B01000800
:100070001B0100081B0100081B0100081B010008F0
:100080001B0100081B0100081B0100081B010008E0
:100090001B0100081B0100081B0100081B010008D0
:1000A0001B0100081B0100081B0100081B010008C0
:1000B0001B0100081B0100081B0100081B010008B0
:1000C0001B0100081B0100081B0100081B010008A0
:1000D0001B010008ED150008B11600081B010008FF
:1000E0001B010008AD1200081B010008DFF80CD04E
:1000F00000F0B8FA0048004719240008C0050020A5
:100100000648804706480047FEE7FEE7FEE7FEE7B1
:10011000FEE7FEE7FEE7FEE7FEE7FEE7FD14000868
:10012000ED00000840EA01039B0703D009E008C97D
:10013000121F08C0042AFAD203E011F8013B00F8AC
:10014000013B521EF9D270472DE9FE4F804681EAED
:100150000300C00F0C46009021F0004123F0004541
:10016000B8EB0200A94105D24046214690461C4604
:100170000B46024623F00040104347D0270DC7F33B
:100180000A00C3F30A510290401A019040286BDA2A
:10019000C3F3130040F4801B0098924620B1002363
:1001A000D2EB030A63EB0B0B01985946C0F14002F6
:1001B000504600F0B0F906460D4650465946019AA1
:1001C00000F0C8F910EB08006141002487EA1152E1
:1001D00084EAE7731A4340D0009A62B3019A012A75
:1001E0004FEA075215DC001B61EB02014FF00042A1
:1001F00002EA0752CDE90042001C41F58011324667
:100200002B4600F0C8F903B0BDE8F08F4046214608
:10021000F9E7001B61EB0201001C41F58013001897
:100220005B412018A2F5001747EB030140EAD570A7
:10023000B6196D4111E06D084FEA360645EAC07502
:100240004FEA0752001B61EB0201001C41F58011CF
:1002500049084FEA30000019514132462B4603B09D
:10026000BDE8F04F00F088B900980122400000235B
:10027000D0EB020263EBE073009821464FEAE07492
:10028000B8EB000061EB0401E9E783F000435BE7B2
:1002900081F0004158E72DE9FE4F81EA030404F0A4
:1002A000004421F0004100944FF0000B23F0004384
:1002B00050EA01045ED052EA03045BD0C3F30A544F
:1002C000C1F30A552C44A4F2F3340194A0FB025468
:1002D000C1F3130141F48011C3F3130343F48013FA
:1002E00001FB024400FB034E840A970A44EA81544E
:1002F00047EA8357A4FB076802958D0A05FB07852B
:100300004FEA932C04FB0C542705029D4FEA065834
:1003100047EA1637B5EB08056EEB070C870E920E11
:1003200047EA811742EA8312A7FB0201B6EB0B01F1
:1003300064EB00042B0D43EA0C335E1844EB1C50B5
:10034000DA465146E7FB0201C5F313044FEA0B33CB
:1003500043EA14534FEA0432019C43EA0603A4F132
:100360000C040294009CCDE900B400F014F903B031
:10037000BDE8F08F00200146F9E72DE9F04D81EA54
:10038000030404F0004B21F0004514464FF0000A2E
:1003900023F0004150EA050220D054EA01021DD0AA
:1003A000C5F30A570246C5F31303C1F31300C1F3A3
:1003B0000A5640F4801543F48013A7EB0608101B7F
:1003C000D64608F2FD3873EB050002D308F10108A8
:1003D00001E092185B41B8F1000F03DA00200146FA
:1003E000BDE8F08D00204FF48011064684460EE0F3
:1003F000171B73EB050705D3121B63EB05030643BD
:100400004CEA010C49084FEA300092185B4150EA6F
:100410000107EDD152EA030012D082EA040083EA18
:100420000501084305D0101BAB4106D20122002371
:1004300006E000224FF0004302E06FF0010253108B
:100440001AEB06004CEB085110EB0A0041EB0B01D4
:10045000BDE8F04D00F090B830B5041E71F1000415
:1004600004DB4FF00044404264EB0101141E73F1C1
:10047000000405DB1C464FF00043524263EB0403CB
:10048000994208BF904230BD30B50B46014600206E
:100490002022012409E021FA02F59D4205D303FA46
:1004A00002F5491B04FA02F52844151EA2F10102C7
:1004B000F1DC30BD2DE9F05F0546002092469B46F9
:1004C00088460646814640241BE02846414647466A
:1004D000224600F02FF853465A46C01A914110D3D5
:1004E00011461846224600F016F82D1A67EB01084F
:1004F0004F4622460120002100F00DF817EB0009BD
:100500004E41201EA4F10104DFDC484631462A4654
:100510004346BDE8F09F202A04DB203A00FA02F1AE
:10052000002070479140C2F1200320FA03F31943E1
:1005300090407047202A04DB203A21FA02F0002183
:10054000704721FA02F3D040C2F1200291400843E3
:1005500019467047202A06DBCB17203A41FA02F0F1
:1005600043EAE07306E041FA02F3D040C2F1200210
:10057000914008431946704710B5141E73F10004EA
:1005800008DA401C41F1000192185B411A4301D185
:1005900020F0010010BD2DE9F04D92469B4611B1AF
:1005A000B1FA81F202E0B0FA80F220329046FFF711
:1005B000B2FF04460F4640EA0A0041EA0B015346E7
:1005C0005A46084313D0114653EA010019D0C8F126
:1005D00040025046FFF7AEFF05460E4650465946CC
:1005E0004246FFF798FF084305D0012004E020466B
:1005F0003946BDE8F08D0020054346EAE0762C43FD
:1006000037430A986305E40AA0EB08000022FD0ABC
:1006100044EA47540A3002D500200146E9E70105C3
:1006200010196941DDE9084500196941BDE8F04D3F
:10063000A2E7C1F30A52C1F3130140F2FF3341F4C0
:1006400080119A4202DA00200146704740F233439B
:100650009A42A2F2334202DC5242FFF76BBFFFF72D
:100660005ABF0000064C074D06E0E06840F0010369
:1006700094E8070098471034AC42F6D3FFF73AFDF0
:100680000C2500082C250008FEE77047014908608A
:10069000704700001404014001490320887070472E
:1006A000000000200748032181704178012904D00F
:1006B00001214170084601F0A3BE022141700020D3
:1006C000F9E70000000000207047704708B50121DD
:1006D000082000F0C3FC4FF4C050ADF80000032028
:1006E0008DF8020010208DF803006946014800F0E3
:1006F00003F808BD000C0140F0B5CC78002204F0EE
:100700000F03E40601D58C7823430C784FF00F0CCF
:1007100014F0FF0F4FF0010E1BD005680E880EFA83
:1007200002F42640A64210D196000CFA06F725EAFC
:10073000070703FA06F5CE783D43282E02D0482E4F
:1007400002D002E0446100E00461521C082AE5D3B3
:1007500005600A88FF2A1CD94468002202F10806B5
:100760000EFA06F50E882E40AE420ED196000CFA17
:1007700006F7BC4303FA06F7CE783C43282E00D197
:100780004561CE78482E00D10561521C082AE5D378
:100790004460F0BD41617047016170470149032029
:1007A00088707047000000207047FEE781070CD179
:1007B0006421B0FBF1F201FB120141B94FF4C871A1
:1007C000B0FBF1F201FB120008B1002070470120DC
:1007D0007047FEE72DE9F041664C012500232178A2
:1007E00000297DD061784FF0020889B3A1780829EB
:1007F00022D006DC01290DD0022917D0042904D10A
:1008000017E0102925D0112926D023706370A3701A
:10081000E570ABE000F01AF9A07900F0FC00A071DF
:100820002079012823D0032823D09FE000F062F92B
:100830009CE000F0B9F999E000F07AFAA07900F0B4
:10084000FC00A0712079022811D0042811D08DE07D
:1008500012E000F0A5FB89E000F030F9A07900F08B
:10086000FC00A071207910B1022802D07EE0A571B1
:100870007CE084F8068079E02A280AD03D4A1432C8
:100880002C2808D0E1785054491CC8B2E0700528E3
:100890006CD923706AE03748D6781430472E017936
:1008A00002D0532E06D02CE041292AD13248437081
:1008B000A5703AE0412924D12F4F00200A373A1879
:1008C000401CC0B293700C28F9D300203A18401C89
:1008D000D3741376C0B293730528F7D3002000E0D9
:1008E0003BE0254A283200EB400702EB4707401C5B
:1008F000BB70BB71FB70C0B2BB800C28F3D384F813
:100900000280562901D10420A070542E02D04C2E12
:1009100004D005E0472903D1102005E04C2902D07E
:1009200043290BD001E01120A0706570E5702371A0
:100930006371A07940F01000A07117E00E482D21DE
:100940002438C37103724381017343738373038239
:100950008174838283830820E6E7242806D12570EA
:10096000A371E3706370A37023716371A079BDE814
:10097000F08100000C0000206C000020704738B5AA
:1009800000214FF0006000F057F84FF4E06000F0F5
:1009900049F825208DF8000000258DF8025001242B
:1009A0008DF80340684600F00BF826208DF8000013
:1009B0008DF802508DF80340684600F001F838BD0C
:1009C00030B50F23C27801780125F2B1144A1268BC
:1009D00001F1E02102F4E062C2F5E062120AC2F124
:1009E0000404D3404278A24084781C40144322017E
:1009F00081F80024007800F01F018D40400980003C
:100A000000F1E020C0F8005130BD01F01F0085402A
:100A10004809800000F1E020C0F8805130BD00009E
:100A20000CED00E0024908430249086070470000ED
:100A30000000FA050CED00E0024A114001430248B3
:100A40000160704780FFFF1F08ED00E00021194A98
:100A50002A280AD02C2811D01179174B052912D039
:100A6000062912D0082921D11DE013481170C03089
:100A70004368002B06D0104A07CA18471079401C5B
:100A8000107151717047187010E05179303811B100
:100A900001290BD103E000EB8000400001E0597810
:100AA0000844587002E05179194488705079401C0C
:100AB000507170470C0000206C00002000220B4990
:100AC0002A2805D02C280CD04879401C4871704742
:100AD00007480A704369002BF9D0A0F10C0207CA3D
:100AE00018470879401C08714A7170470C000020B3
:100AF0002C01002010B50021294B8CB02A2810D0E1
:100B00002C2826D01A792749112A44D2DFE802F08E
:100B100026282A2A2A2A2A2A2A2A2A2A2A2A383C1B
:100B2000400020481970B6308468002C0FD0A0F126
:100B3000A6010D226846FFF7F5FA1E22194904A8FE
:100B4000FFF7F0FA0DF1100C9CE80F00A0470CB075
:100B500010BD1879401C18715971F8E708701AE037
:100B6000487018E05C79303814B1012C13D103E0DF
:100B700000EB8000400001E08C5C204488540AE0D7
:100B80005A791144887306E05A791144C87402E016
:100B90005A79114408765879401C5871D7E70000FB
:100BA0000C00002076000020F0B500255E4CA3B0BC
:100BB0002A2817D02C282DD0A0F1300101EB810379
:100BC00026795B06594A1B0E132E2BD2DFE806F05E
:100BD000A8272B364D6495364D6495364D64953671
:100BE0004D649500514825709830E571C468002C1B
:100BF0000ED0A0F188013A226846FFF793FA4A2204
:100C00004A490FA8FFF78EFA0FAD95E80F00A047ED
:100C100023B0F0BD2079401C20716571F8E73128C0
:100C20007ED1E5717CE0607910B1012878D101E0D6
:100C3000137075E010780844107071E0607910B19D
:100C400001286DD106E0E07900EB400002EB4000A6
:100C5000837065E0E07900EB400302EB4302401C47
:100C6000937819449170E0715AE0607910B10128CD
:100C700056D107E0E07900EB400002EB400000F8BD
:100C8000033C4DE0E07900EB400002EB400010F83F
:100C9000032D1144017043E0637923B1012B12D07D
:100CA000022B3DD11FE001EBC10000EB01104FF61C
:100CB000FF7101EA8001E07900EB400002EB4000A7
:100CC00020F8021C2CE0E17900EB800001EB4101EF
:100CD00002EB41014FF6206331F8022D03EB400097
:100CE000104408801CE0E07900EB400002EB40007B
:100CF00030F8022D1144018012E0607910B1012812
:100D00000ED105E0E07900EB400002F8103007E07A
:100D1000E07900EB400012F81030194402F810108E
:100D20006079401C607173E70C0000209400002083
:100D30002DE9F0430021964F8FB02A282AD02C2885
:100D400040D0A0F1300202EB820149060B0E02EB0B
:100D50004201C1EBC2114FF6FF7404EAC10600EB79
:100D6000C0018C4C01EB001104EB81058A4C00EBB7
:100D7000800104EB4104894997F804C091F803907D
:100D8000BCF1090F2CD2DFE80CF0223D3F626490E9
:100D900092A5B80081483970E4300468002C0ED068
:100DA000A0F1D40114226846FFF7BCF924227B4944
:100DB00005A8FFF7B7F905AD95E80F00A0470FB0FC
:100DC000BDE8F0833879401C38717971F7E778799C
:100DD000062805D2DFE800F003050A0C1012CB70DC
:100DE000D2E009EB02000830C870CDE00B71CBE017
:100DF000087910440871C7E04B71C5E04879104488
:100E00004871C1E08871BFE0644897F805C0408927
:100E1000BCF1090F07D2DFE80CF005070B0DB71185
:100E200013151700CB71AFE0C8791044C871ABE05F
:100E30000B72A9E0087A10440872A5E04E81A3E085
:100E4000284402E0204400E0104448819CE00873FC
:100E50009AE0DFF8488197F805C098F80D90B8F847
:100E60001000BCF10A0F09D2DFE80CF005090C10E4
:100E7000128E16181A1C642042434A7384E009EB50
:100E8000040001E009EB020048737DE08B737BE016
:100E9000887B1044887377E00E8275E0284402E076
:100EA000204400E0104408826EE088746CE03B4807
:100EB0007B79808A052B67D2DFE803F0030507669C
:100EC00009008E8260E0284402E0204400E01044E3
:100ED000888259E031487B79808B052B54D2DFE83A
:100EE00003F00305075309008E834DE0284402E018
:100EF000204400E01044888346E028487D79447807
:100F00008078062D40D2DFE805F003051113333554
:100F10008B7039E01044C0B28870B9F1170F33D923
:100F2000A9F11802CA70401C88702DE04B702BE0AC
:100F30002244D2B24A700D2A26D2DFE802F0250EF2
:100F4000070E120E120E0E120E120E001C281BD9C6
:100F50001C3888700320487016E01F2814D91F38E9
:100F600002E01E2810D91E388870521C4A700BE00F
:100F70000B7009E008780C2C1044C0B2087003D93B
:100F800001224A70401C08707879401C787116E77D
:100F90000C00002040EDFFFF20FEFFFF4800002076
:100FA00010B500220F498CB02A2806D02C2814D066
:100FB0004879401C48710CB010BD0B480A70046998
:100FC000002CF8D0A0F13C0130226846FFF7AAF8C7
:100FD00005484C380FC8A047EDE70879401C087158
:100FE0004A71E8E70C0000202C010020084B10B5E6
:100FF000D3E91910814208D0585C6422491C91FB46
:10100000F2F402FB1411596610BDFF2010BD000060
:101010005001002030B50A4B6422996E0C46491CE1
:1010200091FBF2F502FB15115D6EA94207D0185530
:10103000986E401C90FBF2F102FB1100986630BDE7
:1010400050010020044A0029D16901D0014300E089
:101050008143D1617047000000100240044A00291A
:10106000916901D0014300E0814391617047000024
:101070000010024010B500F027F84FF480342046ED
:1010800000F0B6F800F0FCF801281CD1002000F0B8
:10109000A5F8002000F0D0F8A01100F0C3F84FF43C
:1010A000E011204600F0D8F8012000F0CFF83920F8
:1010B00000F074F80028FAD0022000F0D7F800F011
:1010C00085F80828FBD110BD0C48016841F00101EA
:1010D000016041680A4A114041600168094A1140B3
:1010E0000160016821F480210160416821F4FE0162
:1010F00041604FF41F018160704700000010024002
:101100000000FFF8FFFFF6FE30B5204A5168204B83
:1011100011F00C0103D0042901D0082901D003608B
:1011200012E05168536801F470114FF0020413F497
:10113000803F04EB914102D053689B0301D5154BCE
:1011400000E0134B5943016051680F2303EA11116A
:10115000114B5C5C0168E14041605468072505EA79
:1011600014241C5D21FA04F48460546805EAD42434
:101170001B5DD940C1605268032303EA9232064BDB
:101180001B1F9A5CB1FBF2F1016130BD00100240FF
:1011900000127A0000093D003400002003460020C0
:1011A0005909094A01290AD002290AD0516A03F0D3
:1011B0001F02012393400B4200D0012070471168A9
:1011C000F5E7116AF3E700000010024002484068AA
:1011D00000F00C007047000000100240034A516804
:1011E00021F0F001014351607047000000100240FF
:1011F0000B490A6822F480320A600A6822F48022CD
:101200000A60B0F5803F07D0B0F5802F03D10868A1
:1012100040F4A02008607047086840F48030F9E787
:1012200000100240034A516821F4E061014351601B
:101230007047000000100240034A516821F46051D9
:1012400041EAC00050607047001002400149086642
:101250007047000000004242034B5A68084322F4E2
:101260007C1210435860704700100240034A5168D6
:1012700021F003010143516070470000001002405B
:1012800018B500204FF4A06400903120FFF786FFCE
:101290000099491C0091A14201D00028F5D03120CD
:1012A000FFF77CFF002800D0012018BD4FF400306C
:1012B000FFF7ECB902490A8882430A8070470000B0
:1012C000042800402DE9F043304800882F49091DCB
:1012D0000988DFF8BC8001EB0045B5FBF8F32D4829
:1012E0002D4E018899422FD0038040F2B2744FF402
:1012F000B7774FF4B6790FE02046FFF757FA38B1C9
:10130000BB4202D3A3F5B77304E0641CA4B205E0AA
:10131000A3F26D13641CA4B24B45EDD8B480002435
:101320001E4F0BE0B088FFF741FA08B1012C28D01E
:10133000385D984204D81B1A641CA4B21C2BF1D24D
:10134000641CB4715B1CF371B5FBF8F108FB115020
:101350004FF46161B0FBF1F23270B0FBF1F201FBCE
:1013600012033C22B3FBF2F37370B0FBF1F301FB09
:101370001300B0FBF2F102FB1100B0700020BDE8D9
:10138000F0831D2BDCD31D3BD6E70000182800405E
:1013900080510100280000204401002000250008A1
:1013A00006490988C2B21140044A121F128802423B
:1013B00002D009B101207047002070470428004086
:1013C0000EB50120FFF7ECFFB0B10120FFF772FF6F
:1013D00000F034F8FFF776FF0E48007832280BD182
:1013E0000D480178837842788DE80E00C3798279C0
:1013F00081880AA000F048FA0220FFF7D1FF0028F8
:1014000006D00220FFF756FFBDE80E4000F016B8E8
:101410000EBD000000000020440100202534642F90
:10142000253032642F2530326420253032643A254D
:101430003032643A253032640A00000002480188E4
:101440008906FCD570470000042800407047000062
:101450000CB50022264800920192016841F48031C7
:1014600001604FF4A063016801F40031019100991B
:10147000491C0091019911B900999942F3D1016871
:10148000890333D5012101911A490A6842F01002FB
:101490000A600A6822F003020A600A6842F0020247
:1014A0000A604168416041684160416841F480617F
:1014B0004160416821F47C114160416841F4E811C8
:1014C0004160016841F08071016001688901FCD5CB
:1014D000416821F003014160416841F0020141602F
:1014E0004168C1F381010229FAD10CBD01920CBD02
:1014F0000010024000200240704700000F4810B565
:10150000016841F00101016041680D4A11404160EC
:1015100001680C4A11400160016821F480210160DA
:10152000416821F4FE0141604FF41F018160FFF723
:101530008FFF05494FF00060086010BD00100240A9
:101540000000FFF8FFFFF6FE08ED00E010B586B0E2
:1015500001210520FFF782FD01218803FFF77EFDB1
:101560004FF40070ADF8100018208DF81300032020
:101570001C4C8DF8120004A92046FFF7BDF8211578
:10158000ADF8101004218DF8131004A92046FFF7C0
:10159000B3F804A92046FFF7AFF84FF416500090B7
:1015A0000020ADF80400ADF80600ADF80800ADF875
:1015B0000C000C200C4CADF80A006946204600F0E7
:1015C000E3F8012240F22551204600F0C4F8012141
:1015D000204600F090F84021204600F089F806B03F
:1015E00010BD0000000801400038014010B5084C53
:1015F00040F22551204600F08FF8002807D0204601
:1016000000F018F9BDE81040C0B200F02BB910BDD1
:101610000038014030B585B001210520FFF71EFDDF
:1016200001214804FFF70EFD0424ADF810401820F6
:101630008DF8130003201C4D8DF8120004A92846D4
:10164000FFF75AF80821ADF810108DF8134004A9DF
:101650002846FFF751F804A92846FFF74DF84FF444
:10166000165000900020ADF80400ADF80600ADF86B
:101670000800ADF80C000C200C4CADF80A006946CF
:10168000204600F081F8012240F22551204600F06A
:1016900062F80121204600F02EF84021204600F09B
:1016A00027F805B030BD00000008014000440040AC
:1016B00070B50E4D40F225542146284600F02CF816
:1016C000002811D000222146284600F044F8284680
:1016D00000F0B0F8C0B2FFF79DFC21462846BDE8F7
:1016E0007040012200F037B870BD00000044004097
:1016F000C943018070470029818902D041F400511B
:1017000001E021F4005181817047024600201288D7
:101710000A4200D00120704770B501F01F05012674
:101720000024C1F3421306FA05F2012B0FD0022B5D
:101730000FD0838A4FEA11210088134206FA01F67E
:1017400000EA060001D000B10124204670BD838963
:10175000F0E7038AEEE710B5C1F3421301F01F046E
:101760000121A140012B07D0022B07D01430002A01
:10177000026805D00A4304E00C30F8E71030F6E7C1
:101780008A43026010BD000030B50446008A85B06F
:101790000D464CF6FF710840E98801432182A0897B
:1017A0004EF6F3110840A9882A8911436A89024339
:1017B0001143A181A08A4FF6FF410840A989014346
:1017C000A1826846FFF7A0FC1948844201D1039822
:1017D00000E00298A189090400EBC00101EB0010B0
:1017E000296801D5490000E08900B0FBF1F06422CE
:1017F000B0FBF2F109010B096FF018056B4300EB28
:101800008300A3891D044FF0320306D503EBC0000B
:10181000B0FBF2F000F0070005E003EB0010B0FBB6
:10182000F2F000F00F000843208105B030BD000049
:10183000003801408088C0F308007047C1F30801F8
:101840008180704710B5064C01462046FFF7F6FF31
:1018500080212046FFF759FF0028F9D010BD000075
:101860000038014010B5064C01462046FFF7E6FF60
:1018700080212046FFF749FF0028F9D010BD000065
:1018800000440040FEE700000FB4054B10B503A96B
:10189000044A029800F0CAF810BC5DF814FB00007E
:1018A0005B2100082C00002002E008C8121F08C1BC
:1018B000002AFAD170477047002001E001C1121FD1
:1018C000002AFBD1704700002DE9FF5FDDE902200F
:1018D000010DDDF838B0024318D044F61050A1F2E3
:1018E000FF3141430D140F98012820D0A5EB0B00C8
:1018F000401C5FEA000A4FF00004474EDFF81C91DD
:10190000A046504616D5CAF1000728E00F980124DA
:1019100043A2012808D0002100980F9BC0E90021B4
:10192000C0E90243BDE8FF9F6FEA0B01F4E7CBF18A
:101930000000DEE7074612E0F80707D022463346EC
:1019400040464946FEF7A7FC804689462246334674
:1019500010461946FEF79FFC04460E467F10002FE6
:10196000EAD1DDE90201BAF1000F42464B4602DA44
:10197000FEF791FC01E0FEF700FD04460E46002252
:10198000284BFEF769FD03D84FF0FF30014607E012
:101990000022254B20463146FEF7D6FBFEF749FED6
:1019A000102409E0002C0ADB0A220023FEF782FD46
:1019B000019B30321A55641E50EA0102F2D1641CB8
:1019C000019AC4F1110314440F9A012A03D0012291
:1019D00008430DD10AE0084304D000204FF0110B5A
:1019E0000F9080E7A3EB0B056D1E0DE05B4504DD5A
:1019F0004FF0000205F1010504E003DA4FF00002A8
:101A0000A5F10105002AECD000980F99C0E9023138
:101A1000C0E9004586E70000000024400000F03FD8
:101A2000300000000000F0430000E03F2DE9FF4FD0
:101A300095B09B468946064600250FE2252877D1BA
:101A400000242746F84A0121059400E0044316F8D3
:101A5000013F203B01FA03F01042F7D130782A28E9
:101A600011D06FF02F033078A0F13002092A16D878
:101A7000059A44F0020402EB820203EB4202104496
:101A8000761C0590EFE759F8042B0592002A03DA3B
:101A9000504244F40054059044F00204761C30781F
:101AA0002E2816D116F8010F44F004042A280DD070
:101AB0006FF02F023078A0F13003092B09D807EB23
:101AC000870302EB4303C718761CF3E759F8047B3E
:101AD000761C30786C280FD006DC4C2817D068288C
:101AE0000DD06A2814D104E0742810D07A280FD1C0
:101AF0000DE044F400140AE044F4801401E044F4DE
:101B000040147278824202D104F58014761C761C4F
:101B1000307866280BD013DC582877D009DC0028F1
:101B200075D04528F6D04628F4D047281AD19DE133
:101B300018E0632835D0642879D0652812D195E162
:101B4000702873D008DC6728F1D069286FD06E2820
:101B50000DD06F2806D1B5E073282CD0752875D02C
:101B6000782874D05A46179990476D1C75E1C4F3D4
:101B70000250022809D003280DD0D9F800100428FB
:101B80000DD00D6009F1040967E1D9F80010EA17DA
:101B9000C1E90052F6E7D9F800100D80F2E70D70A8
:101BA000F0E719F8041B8DF8001000208DF80100F3
:101BB000EA46012003E059F804AB4FF0FF3061071B
:101BC0004FF0000102D40DE008F101018846B9424E
:101BD0000FDA8045F8DB1AF808100029F4D108E084
:101BE00008F1010188468142FADB1AF80810002941
:101BF000F6D105985B46A0EB080721463846179AB0
:101C000000F094FA284400EB080507E04DE029E1D4
:101C10000DE01AF8010B5A4617999047B8F10108E0
:101C2000F7D25B4621463846179A13E142E00A2272
:101C30000092C4F302524FF0000A022A08D059F869
:101C400004CB032A4FEAEC710AD00DE029E02AE028
:101C500009F1070121F00702F2E802C1914609E00B
:101C60000FFA8CFC4FEAEC71042A03D14FFA8CFC7A
:101C70004FEAEC71002907DA0A460021DCF1000C7A
:101C800061EB02012D2202E0220504D52B228DF802
:101C90000420012203E0E20701D02022F7E790466A
:101CA00059E00A2102E010220DE010214FF0000A55
:101CB00000910BE010224FF0000A44F004040827C2
:101CC000009203E008224FF0000A0092C4F302528F
:101CD000022A05D059F804CB0021032A08D009E0D4
:101CE00009F1070121F00702F2E802C1914605E07F
:101CF0001FFA8CFC042A01D10CF0FF0C4FF00008F5
:101D0000220728D5702806D0009B83F0100353EAE1
:101D10000A0305D00EE040228DF80420012208E0DD
:101D20005CEA010206D030228DF804208DF805000F
:101D300002229046009B83F0080353EA0A030AD16B
:101D40005CEA010201D1620705D530228DF804203A
:101D50004FF001087F1E582804D034A003900EA82D
:101D600002900DE036A0F9E753466046009AFEF770
:101D7000A1FB84460398825C0298401E0290027088
:101D80005CEA0100F0D1029806A9081A00F1200AC5
:101D9000600702D524F4803400E00127574502DDB6
:101DA000A7EB0A0000E0002000EB0A010090059874
:101DB0004144401A0590E00306D45B462146179A39
:101DC000059800F0B3F90544002706E001A85A463B
:101DD000C05D179990476D1C7F1C4745F6DBE003FB
:101DE0000CD55B462146179A059800F09FF90544EB
:101DF00004E030205A46179990476D1C0099481E00
:101E000000900029F5DC08E0029802995A46007813
:101E1000491C0291179990476D1CBAF10001AAF173
:101E2000010AF1DC65E1000009280100303132339C
:101E30003435363738396162636465660000000006
:101E400030313233343536373839414243444546F0
:101E50000000000000F058F90544761C3078002896
:101E60007FF4ECAD19B02846BDE8F08F620700D4CE
:101E7000062709F1070222F0070CFCE80223E146DD
:101E800003F000485FEA080C02D00FF2702C0DE05E
:101E90005FEA045C02D50FF2682C07E05FEAC47CBD
:101EA00002D00FF2602C01E0AFF2700C4FF0FF385F
:101EB00023F00043CDF850C065280CD006DC45283F
:101EC00009D046281DD047283DD13DE0662818D0CE
:101ED00067287ED138E00021112F01DB112000E0BE
:101EE000781CCDE9000106A90EA8FFF7EDFCDDE99D
:101EF0000F010E9A03910021009207F1010A04914B
:101F00004DE04FF000400097CDE9011006A90EA862
:101F1000FFF7DAFCDDE90F0203920E9B1199002214
:101F2000DDF80CA00093049211B9791C00EB010AB2
:101F3000B7EB0A0004D4C0F1FF3007F1010A0490A6
:101F4000AAEB0700019044E0012F00DA01270021ED
:101F5000112F01DD112000E03846CDE9000106A96E
:101F60000EA8FFF7B1FCDDE90F010E9A03910021E5
:101F700004910092BA4621070CD40399514500DA26
:101F80008A46BAF1010F05DD009AAAF10101515C00
:101F9000302908D0B84202DA10F1040F06DA012124
:101FA000CDE9011015E0AAF10101E9E7002805DCFF
:101FB000049901440491AAEB000102E0411C51453F
:101FC00000DD8A460499401A401C01904FF0004001
:101FD0000290200704D40198504501DBCDF804801D
:101FE00000208DF84F0002980DF14F07B0F1004F1F
:101FF00025D02B200E9002984FF0020800280CDA12
:10200000404202902D200E9007E00A210298FEF730
:102010003BFA3031029007F8011DB8F10001A8F138
:102020000108F2DC02980028EFD1791E0E980870A2
:10203000307800F0200040F0450007F8020D12A8AB
:10204000C01B00F107081498007800B1012000EBD4
:102050000A01019801EBE07105984144401A401EC5
:102060000590E00306D45B462146179A059800F0D8
:102070005DF805441498007818B15A4617999047AE
:102080006D1CE00324D55B462146179A059800F0A5
:102090004DF805441CE00498002807DBDDE9030146
:1020A000884203DD0098405C179901E017993020C1
:1020B0005A469047049805F10105401C0490019888
:1020C000401E019004D12E205A46179990476D1C4E
:1020D000BAF10001AAF1010ADDDC05E017F8010BF5
:1020E0005A46179990476D1CB8F10001A8F10108F4
:1020F000F4DC5B462146179A0598ABE62D000000FC
:102100002B000000200000002DE9F04104460025CE
:102110001E461746880404D405E039462020B047FF
:102120006D1C641EF9D52846BDE8F0812DE9F0410B
:10213000044600251E469046C80301D5302700E01E
:102140002027880404D505E041463846B0476D1C79
:10215000641EF9D52846BDE8F08110B5040002D010
:10216000E0B2FFF76FFB204610BD00000448D0E945
:102170001910814201DD081A00E0401AC0B2704710
:10218000500100202DE9F0410026FFF7EFFFC0B21B
:102190005FEA000854D02B4F50E0FEF727FF0446BB
:1021A000FF284AD0B87950B12046FFF74BFB2046B4
:1021B00000F04AF9012840D10020B8713DE0B52C6B
:1021C0000ED02046FEF706FB05462C2C11D0A807A2
:1021D00015D005F0030001280DD002280DD025E010
:1021E0000120B8712046FFF72DFB204600F02CF9A6
:1021F00023E02C2018E03C2016E03E2014E0B878C4
:1022000088B1032804D0022804D0012804D006E0B5
:102210002A2002E0612000E06220FFF713FBB8787B
:10222000401EB87002E02046FFF70CFBC5F301101A
:10223000012802D1F8796040F871761C4645ACDB84
:10224000BDE8F0810000002010B5FEF713FFFEF797
:1022500096FBFEF73BFAFFF779F9BDE81040FFF770
:10226000D9B910B500F00EF8FFF7D4F9002000F04E
:1022700033F8022000F030F8BDE81040032000F0F1
:102280002BB800001CB505490548CDE90001054BF8
:10229000054A0649064800F00DF81CBDA5060008D1
:1022A000A9070008CB060008C9060008990600081F
:1022B0009D07000870B5034CDDE9045684E86F0003
:1022C00070BD00002C01002002490020886648668D
:1022D0007047000050010020F0B507461EA0ABB0CB
:1022E0000FC80DF1880C00248CE80F0025462C2225
:1022F0001DA10CA8FDF716FF2C2226A117A8FDF79B
:1023000011FF30222EA16846FDF70CFF38A00DF119
:10231000980C0FC88CE80F0047B1012F08D0022F8E
:1023200008D0032F09D0042F0AD011E022AE08E014
:102330000CAE00E017AE2C250AE06E46302507E013
:1023400026AE0E2504E0305DFFF78CFA641CE4B283
:10235000AC42F8D32BB0F0BDB56206010600010215
:102360000001000011880000B56206242400FFFF70
:10237000000300000000102700000500FA00FA002A
:1023800058025E01003C0000000000000000000058
:1023900000007486B56206242400FFFF00030000DD
:1023A0000000102700000000FA00FA0064002C0171
:1023B000000000001027000000000000000042970D
:1023C000B5620623280000004C66000000000000F3
:1023D00003100000000000000000000000000000EA
:1023E00000010000640000000000000000007B9E6F
:1023F000B56206080600F401010001000B77000039
:10240000044A01284FF48051104601D0FEF7C4B9A8
:10241000FEF7C0B9000C0140FFF716FFFFF754FFAD
:10242000FFF71FFF04A0FFF72FFA0120FFF7E8FFD7
:10243000FFF7A8FEFCE700006D61696E2829207394
:10244000746172740A00000010B500222B496228E2
:102450000CD0B52808D00B7A082B47D2DFE803F060
:10246000460D11151921484A62203EE0087A62287B
:1024700001D00A723AE0012037E002220A72487263
:1024800034E003220A72887230E004220A72C872B1
:102490002CE005230B72CB7A03EB0020C8720A7381
:1024A00024E04A7A012A18D18A7A022A15D10A7BB5
:1024B000142A11D0152A04D0162A06D0172A08D0BB
:1024C0000BE00A6942EA002006E00A6942EA00409D
:1024D00002E00A6942EA00600861087B401CC0B261
:1024E0000873CA7A904201D106200872002010BDFC
:1024F0000720FAE70A720A73012010BD0C000020C1
:102500001F1C1F1E1F1E1F1F1E1F1E1F2C25000805
:102510000000002044000000A818000870250008F2
:10252000440000207C050000B818000800010000ED
:10253000000000000000000000000000000000009B
:102540000000000000000000000000004750787804
:10255000782C0000000000000000000002040608C3
:102560000000000001020304010203040607080939
:04000005080000ED02
:00000001FF
